20:36:44.530282 IP 192.168.1.137.8001 > st-routers.mcast.net.8001: UDP, length 200
20:36:44.532392 IP 192.168.1.137.33962 > 192.168.1.255.15600: UDP, length 35
20:36:44.955940 ARP, Request who-has 192.168.1.143 tell _gateway, length 46
20:36:45.190034 IP rcabezas-ubuntu-ws.53879 > 100.90.1.1.domain: 37393+ [1au] PTR? 137.1.168.192.in-addr.arpa. (55)
20:36:45.195855 IP 100.90.1.1.domain > rcabezas-ubuntu-ws.53879: 37393 NXDomain* 0/1/1 (110)
20:36:45.196347 IP rcabezas-ubuntu-ws.47315 > 100.90.1.1.domain: 33718+ [1au] PTR? 143.1.168.192.in-addr.arpa. (55)
20:36:45.201998 IP 100.90.1.1.domain > rcabezas-ubuntu-ws.47315: 33718 NXDomain* 0/1/1 (110)
20:36:45.202212 IP rcabezas-ubuntu-ws.57898 > 100.90.1.1.domain: 52851+ [1au] PTR? 1.1.168.192.in-addr.arpa. (53)
20:36:45.207949 IP 100.90.1.1.domain > rcabezas-ubuntu-ws.57898: 52851 NXDomain* 0/1/1 (108)
20:36:45.460584 98:48:27:f6:e5:4e (oui Unknown) > Broadcast, ethertype Unknown (0x88e1), length 214: 
	0x0000:  0121 6000 0001 4120 e47d bd62 3b70 c26a  .!`...A..}.b;p.j
	0x0010:  5394 17d5 f4f6 470d 8624 d83a dd00 06a2  S.....G..$.:....
	0x0020:  d83a dd00 06a3 0652 34ad 3099 b827 eb75  .:.....R4.0..'.u
	0x0030:  7b57 601a c7df 8784 4c5f 702e 9b0e 1c45  {W`.....L_p....E
	0x0040:  86c7 72f8 f264 db63 e6c0 c6bd 8003 5632  ..r..d.c......V2
	0x0050:  cec0 91eb 5871 2ae9 ce3e d838 86fd 6a9e  ....Xq*..>.8..j.
	0x0060:  e8d5 28d0 ea3e 8465 5cc1 d73f f5ae 62c5  ..(..>.e\..?..b.
	0x0070:  5794 6129 886f 2909 0b7e 8cc6 81f0 867e  W.a).o)..~.....~
	0x0080:  c423 60d5 62d1 4669 2ad0 5c58 28cf 5179  .#`.b.Fi*.\X(.Qy
	0x0090:  9200 122a ce4a 65d0 f003 8cd2 bdff 463a  ...*.Je.......F:
	0x00a0:  4a43 a852 0a16 7054 28ce eac0 f11a 1b35  JC.R..pT(......5
	0x00b0:  201c 3ac6 5804 9e98 ead7 be68 e630 9f16  ..:.X......h.0..
	0x00c0:  46f4 7a99 9d62 081d                      F.z..b..
20:36:45.955449 ARP, Request who-has 192.168.1.143 tell _gateway, length 46
20:36:46.205044 IP rcabezas-ubuntu-ws.22081 > mad41s13-in-f14.1e100.net.40: Flags [S], seq 1681692777, win 65535, length 0
20:36:46.205065 IP rcabezas-ubuntu-ws.20738 > mad41s13-in-f14.1e100.net.tacacs: Flags [S], seq 424238335, win 65535, length 0
20:36:46.205071 IP rcabezas-ubuntu-ws.47937 > mad41s13-in-f14.1e100.net.41: Flags [S], seq 596516649, win 65535, length 0
20:36:46.205085 IP rcabezas-ubuntu-ws.38357 > mad41s13-in-f14.1e100.net.57: Flags [S], seq 1350490027, win 65535, length 0
20:36:46.205092 IP rcabezas-ubuntu-ws.24754 > mad41s13-in-f14.1e100.net.50: Flags [S], seq 2044897763, win 65535, length 0
20:36:46.205097 IP rcabezas-ubuntu-ws.20955 > mad41s13-in-f14.1e100.net.42: Flags [S], seq 1540383426, win 65535, length 0
20:36:46.205128 IP rcabezas-ubuntu-ws.30121 > mad41s13-in-f14.1e100.net.58: Flags [S], seq 35005211, win 65535, length 0
20:36:46.205132 IP rcabezas-ubuntu-ws.57207 > mad41s13-in-f14.1e100.net.65: Flags [S], seq 1726956429, win 65535, length 0
20:36:46.205139 IP rcabezas-ubuntu-ws.22700 > mad41s13-in-f14.1e100.net.51: Flags [S], seq 278722862, win 65535, length 0
20:36:46.205166 IP rcabezas-ubuntu-ws.16912 > mad41s13-in-f14.1e100.net.59: Flags [S], seq 468703135, win 65535, length 0
20:36:46.205175 IP rcabezas-ubuntu-ws.29442 > mad41s13-in-f14.1e100.net.73: Flags [S], seq 1315634022, win 65535, length 0
20:36:46.205184 IP rcabezas-ubuntu-ws.41384 > mad41s13-in-f14.1e100.net.whois: Flags [S], seq 1125898167, win 65535, length 0
20:36:46.205194 IP rcabezas-ubuntu-ws.24796 > mad41s13-in-f14.1e100.net.66: Flags [S], seq 628175011, win 65535, length 0
20:36:46.205202 IP rcabezas-ubuntu-ws.5429 > mad41s13-in-f14.1e100.net.74: Flags [S], seq 608413784, win 65535, length 0
20:36:46.205208 IP rcabezas-ubuntu-ws.60353 > mad41s13-in-f14.1e100.net.44: Flags [S], seq 1973594324, win 65535, length 0
20:36:46.205215 IP rcabezas-ubuntu-ws.42129 > mad41s13-in-f14.1e100.net.60: Flags [S], seq 1653377373, win 65535, length 0
20:36:46.205220 IP rcabezas-ubuntu-ws.1590 > mad41s13-in-f14.1e100.net.67: Flags [S], seq 1129566413, win 65535, length 0
20:36:46.205226 IP rcabezas-ubuntu-ws.36661 > mad41s13-in-f14.1e100.net.75: Flags [S], seq 1424268980, win 65535, length 0
20:36:46.205252 IP rcabezas-ubuntu-ws.45753 > mad41s13-in-f14.1e100.net.52: Flags [S], seq 137806862, win 65535, length 0
20:36:46.205256 IP rcabezas-ubuntu-ws.14715 > mad41s13-in-f14.1e100.net.61: Flags [S], seq 1937477084, win 65535, length 0
20:36:46.205264 IP rcabezas-ubuntu-ws.13066 > mad41s13-in-f14.1e100.net.45: Flags [S], seq 135497281, win 65535, length 0
20:36:46.205266 IP rcabezas-ubuntu-ws.15506 > mad41s13-in-f14.1e100.net.76: Flags [S], seq 1159126505, win 65535, length 0
20:36:46.205274 IP rcabezas-ubuntu-ws.13809 > mad41s13-in-f14.1e100.net.68: Flags [S], seq 1100661313, win 65535, length 0
20:36:46.205281 IP rcabezas-ubuntu-ws.61959 > mad41s13-in-f14.1e100.net.domain: Flags [S], seq 84353895, win 65535, length 0
20:36:46.205285 IP rcabezas-ubuntu-ws.54855 > mad41s13-in-f14.1e100.net.77: Flags [S], seq 1998898814, win 65535, length 0
20:36:46.205307 IP rcabezas-ubuntu-ws.56909 > mad41s13-in-f14.1e100.net.78: Flags [S], seq 1585990364, win 65535, length 0
20:36:46.205318 IP rcabezas-ubuntu-ws.37041 > mad41s13-in-f14.1e100.net.46: Flags [S], seq 1889947178, win 65535, length 0
20:36:46.205322 IP rcabezas-ubuntu-ws.42744 > mad41s13-in-f14.1e100.net.69: Flags [S], seq 491705403, win 65535, length 0
20:36:46.205324 IP rcabezas-ubuntu-ws.42215 > mad41s13-in-f14.1e100.net.62: Flags [S], seq 1477171087, win 65535, length 0
20:36:46.205330 IP rcabezas-ubuntu-ws.50954 > mad41s13-in-f14.1e100.net.finger: Flags [S], seq 1474612399, win 65535, length 0
20:36:46.205338 IP rcabezas-ubuntu-ws.55980 > mad41s13-in-f14.1e100.net.54: Flags [S], seq 1411549676, win 65535, length 0
20:36:46.205350 IP rcabezas-ubuntu-ws.47134 > mad41s13-in-f14.1e100.net.http: Flags [S], seq 1984210012, win 65535, length 0
20:36:46.205363 IP rcabezas-ubuntu-ws.45156 > mad41s13-in-f14.1e100.net.gopher: Flags [S], seq 1469348094, win 65535, length 0
20:36:46.205367 IP rcabezas-ubuntu-ws.14593 > mad41s13-in-f14.1e100.net.55: Flags [S], seq 317097467, win 65535, length 0
20:36:46.205371 IP rcabezas-ubuntu-ws.16352 > mad41s13-in-f14.1e100.net.47: Flags [S], seq 927612902, win 65535, length 0
20:36:46.205373 IP rcabezas-ubuntu-ws.32445 > mad41s13-in-f14.1e100.net.63: Flags [S], seq 463480570, win 65535, length 0
20:36:46.205380 IP rcabezas-ubuntu-ws.58677 > mad41s13-in-f14.1e100.net.71: Flags [S], seq 1687926652, win 65535, length 0
20:36:46.205391 IP rcabezas-ubuntu-ws.40621 > mad41s13-in-f14.1e100.net.48: Flags [S], seq 485560280, win 65535, length 0
20:36:46.205405 IP rcabezas-ubuntu-ws.50449 > mad41s13-in-f14.1e100.net.72: Flags [S], seq 1947346619, win 65535, length 0
20:36:46.205407 IP rcabezas-ubuntu-ws.52156 > mad41s13-in-f14.1e100.net.56: Flags [S], seq 1194953865, win 65535, length 0
20:36:46.205430 IP rcabezas-ubuntu-ws.19644 > mad41s13-in-f14.1e100.net.64: Flags [S], seq 1063958031, win 65535, length 0
20:36:46.213054 IP mad41s13-in-f14.1e100.net.http > rcabezas-ubuntu-ws.47134: Flags [S.], seq 2999228402, ack 1984210013, win 65535, options [mss 1412], length 0
20:36:46.213073 IP rcabezas-ubuntu-ws.47134 > mad41s13-in-f14.1e100.net.http: Flags [R], seq 1984210013, win 0, length 0
20:36:46.213631 IP rcabezas-ubuntu-ws.55983 > 100.90.1.1.domain: 11530+ [1au] PTR? 1.1.90.100.in-addr.arpa. (52)
20:36:46.218971 IP 100.90.1.1.domain > rcabezas-ubuntu-ws.55983: 11530 NXDomain* 0/1/1 (106)
20:36:46.219255 IP rcabezas-ubuntu-ws.43064 > 100.90.1.1.domain: 14458+ [1au] PTR? 129.1.168.192.in-addr.arpa. (55)
20:36:46.224862 IP 100.90.1.1.domain > rcabezas-ubuntu-ws.43064: 14458 NXDomain* 0/1/1 (110)
20:36:46.531309 IP 192.168.1.137.8001 > st-routers.mcast.net.8001: UDP, length 200
20:36:46.554665 IP6 2606:4700:10::6816:2c53.https > rcabezas-ubuntu-ws.58876: Flags [P.], seq 2150504743:2150504803, ack 2228686853, win 9, options [nop,nop,TS val 2672647085 ecr 3906569333], length 60
20:36:46.554714 IP6 rcabezas-ubuntu-ws.58876 > 2606:4700:10::6816:2c53.https: Flags [.], ack 60, win 501, options [nop,nop,TS val 3906572337 ecr 2672647085], length 0
20:36:46.793576 98:48:27:f6:eb:94 (oui Unknown) > Broadcast, ethertype Unknown (0x88e1), length 60: 
	0x0000:  0121 6000 0001 4d02 d83a dd32 7658 cc28  .!`...M..:.2vX.(
	0x0010:  aa11 0fb8 0000 0000 0000 0000 0000 0000  ................
	0x0020:  0000 0000 0000 0000 0000 0000 0000       ..............
20:36:47.237848 IP rcabezas-ubuntu-ws.40340 > 100.90.1.1.domain: 33827+ [1au] PTR? 6.6.a.1.8.a.f.7.7.a.f.e.1.1.d.6.0.0.6.4.6.0.4.e.1.8.a.5.c.0.a.2.ip6.arpa. (101)
20:36:47.243314 IP 100.90.1.1.domain > rcabezas-ubuntu-ws.40340: 33827 NXDomain 0/1/1 (183)
20:36:47.243897 IP rcabezas-ubuntu-ws.56590 > 100.90.1.1.domain: 58728+ [1au] PTR? 3.5.c.2.6.1.8.6.0.0.0.0.0.0.0.0.0.0.0.0.0.1.0.0.0.0.7.4.6.0.6.2.ip6.arpa. (101)
20:36:47.249439 IP 100.90.1.1.domain > rcabezas-ubuntu-ws.56590: 58728 NXDomain 0/1/1 (201)
20:36:47.533371 IP 192.168.1.137.45139 > 239.255.255.250.15600: UDP, length 35
20:36:48.158213 98:48:27:f6:e5:4e (oui Unknown) > Broadcast, ethertype Unknown (0x88e1), length 214: 
	0x0000:  0121 6000 0001 4120 e47d bd62 3b70 c26a  .!`...A..}.b;p.j
	0x0010:  5394 17d5 f4f6 470d 8624 d83a dd00 06a2  S.....G..$.:....
	0x0020:  d83a dd00 06a3 0652 34ad 3099 b827 eb75  .:.....R4.0..'.u
	0x0030:  7b57 601a c7df 8784 4c5f 702e 9b0e 1c45  {W`.....L_p....E
	0x0040:  86c7 72f8 f264 db63 e6c0 c6bd 8003 5632  ..r..d.c......V2
	0x0050:  cec0 91eb 5871 2ae9 ce3e d838 86fd 6a9e  ....Xq*..>.8..j.
	0x0060:  e8d5 28d0 ea3e 8465 5cc1 d73f f5ae 62c5  ..(..>.e\..?..b.
	0x0070:  5794 6129 886f 2909 0b7e 8cc6 81f0 867e  W.a).o)..~.....~
	0x0080:  c423 60d5 62d1 4669 2ad0 5c58 28cf 5179  .#`.b.Fi*.\X(.Qy
	0x0090:  9200 122a ce4a 65d0 f003 8cd2 bdff 463a  ...*.Je.......F:
	0x00a0:  4a43 a852 0a16 7054 28ce eac0 f11a 1b35  JC.R..pT(......5
	0x00b0:  201c 3ac6 5804 9e98 ead7 be68 e630 9f16  ..:.X......h.0..
	0x00c0:  46f4 7a99 9d62 081d                      F.z..b..
20:36:48.261731 IP rcabezas-ubuntu-ws.43236 > 100.90.1.1.domain: 62566+ [1au] PTR? 250.255.255.239.in-addr.arpa. (57)
20:36:48.268423 IP 100.90.1.1.domain > rcabezas-ubuntu-ws.43236: 62566 NXDomain 0/1/1 (130)
20:36:48.325643 IP rcabezas-ubuntu-ws.53662 > 51.132.193.104.https: Flags [.], ack 2790248906, win 501, options [nop,nop,TS val 1007628285 ecr 332457008], length 0
20:36:48.362110 IP 51.132.193.104.https > rcabezas-ubuntu-ws.53662: Flags [.], ack 1, win 16385, options [nop,nop,TS val 332502515 ecr 1007582725], length 0
20:36:48.376831 ARP, Request who-has 192.168.1.143 tell _gateway, length 46
20:36:48.531730 IP 192.168.1.137.8001 > st-routers.mcast.net.8001: UDP, length 200
20:36:49.221654 IP 192.168.1.163.mdns > mdns.mcast.net.mdns: 0*- [0q] 1/0/2 PTR Nostromo_MB._dosvc._tcp.local. (202)
20:36:49.223507 IP6 fe80::1dcf:b01b:5c01:8c82.mdns > ff02::fb.mdns: 0*- [0q] 1/0/2 PTR Nostromo_MB._dosvc._tcp.local. (202)
20:36:49.223507 IP 192.168.1.163.mdns > mdns.mcast.net.mdns: 0 ANY (QM)? Nostromo_MB._dosvc._tcp.local. (47)
20:36:49.223507 IP6 fe80::1dcf:b01b:5c01:8c82.mdns > ff02::fb.mdns: 0 ANY (QM)? Nostromo_MB._dosvc._tcp.local. (47)
20:36:49.286245 IP rcabezas-ubuntu-ws.53552 > 100.90.1.1.domain: 9072+ [1au] PTR? 104.193.132.51.in-addr.arpa. (56)
20:36:49.294064 IP 100.90.1.1.domain > rcabezas-ubuntu-ws.53552: 9072 NXDomain 0/1/1 (145)
20:36:49.295207 IP rcabezas-ubuntu-ws.42635 > 100.90.1.1.domain: 60861+ [1au] PTR? 163.1.168.192.in-addr.arpa. (55)
20:36:49.301177 IP 100.90.1.1.domain > rcabezas-ubuntu-ws.42635: 60861 NXDomain* 0/1/1 (110)
20:36:49.301880 IP rcabezas-ubuntu-ws.42663 > 100.90.1.1.domain: 9442+ [1au] PTR? b.f.0.0.0.0.0.0.0.0.0.0.0.0.0.0.0.0.0.0.0.0.0.0.0.0.0.0.2.0.f.f.ip6.arpa. (101)
20:36:49.307645 IP 100.90.1.1.domain > rcabezas-ubuntu-ws.42663: 9442 NXDomain 0/1/1 (177)
20:36:49.375716 ARP, Request who-has 192.168.1.143 tell _gateway, length 46
20:36:49.473381 IP 192.168.1.163.mdns > mdns.mcast.net.mdns: 0 ANY (QM)? Nostromo_MB._dosvc._tcp.local. (47)
20:36:49.473382 IP6 fe80::1dcf:b01b:5c01:8c82.mdns > ff02::fb.mdns: 0 ANY (QM)? Nostromo_MB._dosvc._tcp.local. (47)
20:36:49.491101 98:48:27:f6:eb:94 (oui Unknown) > Broadcast, ethertype Unknown (0x88e1), length 60: 
	0x0000:  0121 6000 0001 4d02 d83a dd32 7658 cc28  .!`...M..:.2vX.(
	0x0010:  aa11 0fb8 0000 0000 0000 0000 0000 0000  ................
	0x0020:  0000 0000 0000 0000 0000 0000 0000       ..............
20:36:49.551133 IP6 2606:4700:10::6816:2c53.https > rcabezas-ubuntu-ws.58876: Flags [P.], seq 60:120, ack 1, win 9, options [nop,nop,TS val 2672650082 ecr 3906572337], length 60
20:36:49.551182 IP6 rcabezas-ubuntu-ws.58876 > 2606:4700:10::6816:2c53.https: Flags [.], ack 120, win 501, options [nop,nop,TS val 3906575333 ecr 2672650082], length 0
20:36:49.726051 IP 192.168.1.163.mdns > mdns.mcast.net.mdns: 0 ANY (QM)? Nostromo_MB._dosvc._tcp.local. (47)
20:36:49.726051 IP6 fe80::1dcf:b01b:5c01:8c82.mdns > ff02::fb.mdns: 0 ANY (QM)? Nostromo_MB._dosvc._tcp.local. (47)
20:36:49.991637 IP 192.168.1.163.mdns > mdns.mcast.net.mdns: 0*- [0q] 1/0/6 (Cache flush) PTR Nostromo_MB._dosvc._tcp.local. (319)
20:36:49.991686 IP6 fe80::1dcf:b01b:5c01:8c82.mdns > ff02::fb.mdns: 0*- [0q] 1/0/6 (Cache flush) PTR Nostromo_MB._dosvc._tcp.local. (319)
20:36:49.991686 IP 192.168.1.163.mdns > mdns.mcast.net.mdns: 0*- [0q] 1/0/5 (Cache flush) SRV Nostromo_MB.local.:7680 0 0 (259)
20:36:49.991720 IP6 fe80::1dcf:b01b:5c01:8c82.mdns > ff02::fb.mdns: 0*- [0q] 1/0/5 (Cache flush) SRV Nostromo_MB.local.:7680 0 0 (259)
20:36:50.204490 ARP, Request who-has rcabezas-ubuntu-ws tell _gateway, length 46
20:36:50.204504 ARP, Reply rcabezas-ubuntu-ws is-at 74:56:3c:6e:77:6b (oui Unknown), length 28
20:36:50.375479 ARP, Request who-has 192.168.1.143 tell _gateway, length 46
20:36:50.530760 IP 192.168.1.137.48257 > 192.168.1.255.15600: UDP, length 35
20:36:50.536888 IP 192.168.1.137.8001 > st-routers.mcast.net.8001: UDP, length 200
20:36:50.855171 98:48:27:f6:e5:4e (oui Unknown) > Broadcast, ethertype Unknown (0x88e1), length 214: 
	0x0000:  0121 6000 0001 4120 e47d bd62 3b70 c26a  .!`...A..}.b;p.j
	0x0010:  5394 17d5 f4f6 470d 8624 d83a dd00 06a2  S.....G..$.:....
	0x0020:  d83a dd00 06a3 0652 34ad 3099 b827 eb75  .:.....R4.0..'.u
	0x0030:  7b57 601a c7df 8784 4c5f 702e 9b0e 1c45  {W`.....L_p....E
	0x0040:  86c7 72f8 f264 db63 e6c0 c6bd 8003 5632  ..r..d.c......V2
	0x0050:  cec0 91eb 5871 2ae9 ce3e d838 86fd 6a9e  ....Xq*..>.8..j.
	0x0060:  e8d5 28d0 ea3e 8465 5cc1 d73f f5ae 62c5  ..(..>.e\..?..b.
	0x0070:  5794 6129 886f 2909 0b7e 8cc6 81f0 867e  W.a).o)..~.....~
	0x0080:  c423 60d5 62d1 4669 2ad0 5c58 28cf 5179  .#`.b.Fi*.\X(.Qy
	0x0090:  9200 122a ce4a 65d0 f003 8cd2 bdff 463a  ...*.Je.......F:
	0x00a0:  4a43 a852 0a16 7054 28ce eac0 f11a 1b35  JC.R..pT(......5
	0x00b0:  201c 3ac6 5804 9e98 ead7 be68 e630 9f16  ..:.X......h.0..
	0x00c0:  46f4 7a99 9d62 081d                      F.z..b..
20:36:52.188285 98:48:27:f6:eb:94 (oui Unknown) > Broadcast, ethertype Unknown (0x88e1), length 60: 
	0x0000:  0121 6000 0001 4d02 d83a dd32 7658 cc28  .!`...M..:.2vX.(
	0x0010:  aa11 0fb8 0000 0000 0000 0000 0000 0000  ................
	0x0020:  0000 0000 0000 0000 0000 0000 0000       ..............

